:020000040800F2
:1000000020480020B1020008614D0008A14A000804
:100010005D4D0008E1080008A57F00080000000011
:10002000000000000000000000000000CF530008A6
:10003000F509000800000000D34F0008E353000852
:10004000CB020008CB020008CB020008CB0200085C
:10005000CB020008CB020008F7090008010A0008DB
:10006000CB020008CB0200080B0A0008E5090008D3
:10007000CB020008CB020008CB020008CB0200082C
:10008000CB020008CB020008CB020008CB0200081C
:10009000CB020008CB020008CB020008150A0008BA
:1000A000CB020008CB020008CB020008CB020008FC
:1000B000CB020008CB020008CB020008CB020008EC
:1000C000CB020008CB020008CB020008CB020008DC
:1000D000CB020008CB020008CB020008CB020008CC
:1000E000CB020008CB02000800000000CB02000891
:1000F000CB020008CB020008CB020008CB020008AC
:10010000CB020008CB020008CB020008CB0200089B
:10011000CB020008CB020008CB020008CB0200088B
:10012000CB020008CB020008CB020008CB0200087B
:10013000CB020008CB020008CB020008CB0200086B
:1001400000000000000000000000000000000000AF
:10015000CB020008CB020008CB020008CB0200084B
:10016000CB020008CB020008CB020008CB0200083B
:10017000CB020008CB020008CB0200080000000000
:10018000CB020008CB020008CB020008CB0200081B
:10019000CB020008CB020008CB020008CB0200080B
:1001A000CB020008CB020008CB020008CB020008FB
:1001B000CB020008CB020008CB020008CB020008EB
:1001C000CB020008CB020008CB020008CB020008DB
:1001D000CB020008654D0008CB020008CB020008E6
:1001E000CB020008CB020008CB020008CB020008BB
:1001F000CB020008CB020008CB020008CB020008AB
:10020000CB020008CB020008CB020008CB0200089A
:10021000CB020008CB020008CB020008CB0200088A
:10022000CB020008CB020008CB020008000000004F
:10023000CB020008CB02000800000000CB0200083F
:10024000CB020008CB020008CB020008CB0200085A
:10025000CB020008CB020008CB020008CB0200084A
:10026000CB020008CB020008CB020008CB0200083A
:10027000CB020008CB020008CB02000800000000FF
:10028000CB020008CB020008CB02000800000000EF
:1002900000000000CB020008DFF810D000F04CF89E
:1002A0000048004759870008AFF30080204800202D
:1002B0000648804706480047FEE7FEE7FEE7FEE700
:1002C000FEE7FEE7FEE7FEE7FEE7FEE7DD54000897
:1002D0009902000840EA01039B0703D009E008C91E
:1002E000121F08C0042AFAD203E011F8013B00F8FB
:1002F000013B521EF9D27047D2B201E000F8012B47
:10030000491EFBD270470022F6E710B513460A4695
:1003100004461946FFF7F0FF204610BD30B50446ED
:100320000020034600E05B1C934203D2E05CCD5CFE
:10033000401BF8D030BD0000064C074D06E0E068D9
:1003400040F0010394E8070098471034AC42F6D31C
:10035000FFF7A6FFC08C0008E08C000870B58C1871
:1003600010F8015B15F0070301D110F8013B2A11C9
:1003700006D110F8012B03E010F8016B01F8016BB6
:100380005B1EF9D12B0705D40023521E0DD401F8B2
:10039000013BFAE710F8013BCB1A921C03E013F87B
:1003A000015B01F8015B521EF9D5A142D8D30020B0
:1003B00070BD10B50446012C06D0022C7BD0032C56
:1003C00077D0042C76D118E10221042000F0FAF94C
:1003D0000A2001F0C9F8FF210D2000F0F3F90A20EE
:1003E00001F0C2F8FF210E2000F0ECF90A2001F024
:1003F000BBF8FF210F2000F0E5F90A2001F0B4F866
:100400000021102000F0DEF90A2001F0ADF80021F3
:10041000112000F0D7F90A2001F0A6F820211520BC
:1004200000F0D0F90A2001F09FF86021052000F0CB
:10043000C9F90A2001F098F86021062000F0C2F9FD
:100440000A2001F091F86021072000F0BBF90A2092
:1004500001F08AF86021082000F0B4F90A2001F0C8
:1004600083F86021092000F0ADF90A2001F07CF842
:1004700060210A2000F0A6F90A2001F075F8602139
:100480000B2000F09FF90A2001F06EF860210C208B
:1004900000F098F90A2001F067F800F06DF92820C3
:1004A00001F062F800F0F6F80D2001F05DF8EFE0E1
:1004B00001E058E0EBE003210D2000F083F90A2071
:1004C00001F052F803210E2000F07CF90A2001F01F
:1004D0004BF82021152000F075F90A2001F044F8AE
:1004E0006021052000F06EF90A2001F03DF860213E
:1004F000062000F067F90A2001F036F88121072074
:1005000000F060F90A2001F02FF88121082000F0A6
:1005100059F90A2001F028F88121092000F052F948
:100520000A2001F021F881210A2000F04BF90A206D
:1005300001F01AF881210B2000F044F90A2001F0A3
:1005400013F881210C2000F03DF90A2001F00CF88D
:1005500000F012F9282001F007F800F09BF80D20B8
:1005600001F002F894E0C021022000F02BF90A20EB
:1005700000F0FAFF0121052000F024F90A2000F024
:10058000F3FF0121062000F01DF90A2000F0ECFF26
:100590000121072000F016F90A2000F0E5FF0121F3
:1005A000082000F00FF90A2000F0DEFF01210920E9
:1005B00000F008F90A2000F0D7FF01210A2000F01E
:1005C00001F90A2000F0D0FF01210B2000F0FAF819
:1005D0000A2000F0C9FF01210C2000F0F3F80A20E6
:1005E00000F0C2FF00F0C8F8282000F0BDFF00F0C6
:1005F00051F80D2000F0B8FF4AE0D021022000F0B1
:10060000E1F80A2000F0B0FF0521084600F0DAF812
:100610000A2000F0A9FF0521062000F0D3F80A20E7
:1006200000F0A2FF0521072000F0CCF80A2000F01E
:100630009BFF0521082000F0C5F80A2000F094FF78
:100640000521092000F0BEF80A2000F08DFF0521E9
:100650000A2000F0B7F80A2000F086FF05210B20E1
:1006600000F0B0F80A2000F07FFF05210C2000F018
:10067000A9F80A2000F078FF00F07EF8282000F0AA
:1006800073FF00F007F80D2000F06EFF00E000BFE0
:1006900000BF10BD10B500221021074801F096F8E8
:1006A000102000F009F901221021034801F08EF812
:1006B000012000F059FF10BD0000025810B50022C3
:1006C0001021074801F082F8062000F0F5F801201B
:1006D00000F04AFF01221021014801F077F810BD17
:1006E0000000025870B5044604F12000C5B2002293
:1006F00010210B4801F06AF8284600F0DDF80020D0
:1007000000F0DAF8002000F0D7F806490855012279
:100710001021034801F05AF80248005D70BD000046
:1007200000000258C808002010B500221021074818
:1007300001F04CF8112000F0BFF80122102103480D
:1007400001F044F8012000F00FFF10BD0000025836
:1007500010B500221021074801F038F8042000F0FD
:10076000ABF8012000F000FF01221021014801F048
:100770002DF810BD0000025810B5002210210648C7
:1007800001F024F8082000F097F801221021024817
:1007900001F01CF810BD00000000025810B5002246
:1007A0001021074801F012F8022000F085F801221C
:1007B0001021034801F00AF8012000F0D5FE10BD19
:1007C0000000025870B504460D4604F14000C6B260
:1007D00000221021094800F0F9FF304600F06CF8C3
:1007E000002000F069F8284600F066F80122102188
:1007F000024800F0EBFF0248055570BD00000258AA
:10080000C808002010B50020FFF76CFF0446204602
:1008100010BD000070B504460D462548007820B193
:10082000002023490870FFF7B9FFA4F152000928FE
:100830003AD2DFE800F02D192339390F3939050094
:10084000284607F007FE0120FFF7B3FD0A2001F05C
:100850006BF82AE0284607F0FDFD0220FFF7A9FD0E
:100860000A2001F061F820E0284607F0F3FD03209C
:10087000FFF79FFD0A2001F057F816E0284607F021
:10088000E9FD0420FFF795FD0A2001F04DF80CE08A
:10089000FFF75EFF0A2001F025F8064807F0E4FEA6
:1008A00001200349087000E000BF00BF70BD0000D8
:1008B00088000020380600203EB5044601946FF001
:1008C0007F40012302AA01A90090044803F048FFD9
:1008D00008B1FF2002909DF808003EBD30070020BF
:1008E00000BFFEE70346042B15D007DC7BB1012BCC
:1008F0000ED0022B0DD0032B12D10BE0202B0BD0EE
:10090000212B0AD0222B09D0232B09D107E008E0A4
:1009100007E006E005E004E003E002E001E000E0BB
:1009200000BF00BF002070470020704710B50022B4
:100930000449054805F08FF90449034805F07CF99E
:10094000002010BDDC180020000C0020DC1000206E
:1009500070B504460D462146094805F06DF9084872
:1009600005F036F9074928680860084621460268FC
:100970000548FFF7AFFC012004490870002070BD56
:10098000000C00208C010020DC200020A4010020AD
:1009900010B503460C460021084610BD2DE9F04174
:1009A00004460D46002700F01DFF80460C48D0F895
:1009B000BC62D6F8140210B10120BDE8F0812A46CD
:1009C0002146074805F047F9054805F0F7F90746BD
:1009D00000BFD6F814020028FBD13846EDE700002E
:1009E000000C002010B5024800F042F810BD0000D5
:1009F000B8060020704710B5012000F0D1FD10BDF1
:100A000010B5022000F0CCFD10BD10B5102000F094
:100A1000C7FD10BD10B5402000F0C2FD802000F0E1
:100A2000BFFD10BD07E04FF40051034800F0C4FEC5
:100A3000642000F099FDF6E70008025870B50A48F6
:100A40000468001D0568001D0668344454B108227E
:100A50000649204604F026F80422044910312846AD
:100A600004F020F870BD000000E8F11F72010020C2
:100A70002DE9F84F044600200090FE4800684FF42E
:100A80001651B0FBF1FAA66DD4F858803768D8F843
:100A90000090F9492068884249D0F7491831206808
:100AA000884244D0F4493031206888423FD0F2492E
:100AB0004831206888423AD0EF4960312068884246
:100AC00035D0ED4978312068884230D0EA499031FC
:100AD000206888422BD0E849A8312068884226D077
:100AE000E6492068884222D0E449183120688842CB
:100AF0001DD0E24930312068884218D0DF494831A2
:100B00002068884213D0DD496031206888420ED0C9
:100B1000DA4978312068884209D0D8499031206874
:100B2000884204D0D549A8312068884201D10120EB
:100B300000E0002000287DD094F85C0000F01F0148
:100B4000082088403840002868D0CB492068884277
:100B500049D0C94918312068884244D0C64930314B
:100B6000206888423FD0C4494831206888423AD042
:100B7000C14960312068884235D0BF49783120684A
:100B8000884230D0BC499031206888422BD0BA4985
:100B9000A8312068884226D0B8492068884222D0EF
:100BA000B6491831206888421DD0B44930312068D8
:100BB000884218D0B14948312068884213D0AF49E3
:100BC0006031206888420ED0AC4978312068884274
:100BD00009D0AA4990312068884204D0A749A83199
:100BE0002068884204D12068006800F0040003E017
:100BF0002068006800F0080080B12068006820F0DC
:100C000004002168086094F85C0000F01F010820CF
:100C10008840B060606D40F00100606594F85C0051
:100C200000F01F01012088403840E8B39249206855
:100C3000884200E0B7E24BD08F49183120688842E3
:100C400046D08D4930312068884241D08A494831A8
:100C5000206888423CD0884960312068884237D07B
:100C6000854978312068884232D0834990312068A4
:100C700088422DD08049A8312068884228D07F49F9
:100C80002068884224D07D491831206888421FD0CE
:100C90007A493031206888421AD078494831206832
:100CA000884215D0754900E026E06031206888420E
:100CB0000ED0724978312068884209D06F4990314E
:100CC0002068884204D06D49A8312068884204D148
:100CD0002068406900F0800002E020680068002081
:100CE00050B194F85C0000F01F0101208840B06012
:100CF000606D40F00200606594F85C0000F01F0138
:100D0000042088403840E8B35B49206888424BD0D3
:100D1000594918312068884246D0574930312068F7
:100D2000884241D054494831206888423CD05249D9
:100D300060312068884237D04F4978312068884236
:100D400032D04D499031206888422DD04A49A8318F
:100D50002068884228D049492068884224D04749E1
:100D60001831206888421FD04449303120688842B9
:100D70001AD0424948312068884215D03F49603135
:100D8000206800E024E088420ED03C497831206899
:100D9000884209D0394990312068884204D03749C7
:100DA000A8312068884204D12068006800F0020061
:100DB00002E020680068002050B194F85C0000F068
:100DC0001F0104208840B060606D40F00400606541
:100DD00094F85C0000F01F01102088403840E8B310
:100DE00025492068884251D023491831206888421B
:100DF0004CD0214930312068884247D01E494831C3
:100E00002068884242D01C496031206888423DD029
:100E1000194978312068884238D0174990312068C4
:100E2000884233D01449A831206888422ED0134913
:100E3000206888422AD0114918312068884225D07C
:100E40000E4930312068884220D00C494831206852
:100E500088421BD009496031206800E04DE088429B
:100E600014D006497831206888420FD00349903168
:100E7000206805E0800000201000024010040240BD
:100E8000884203D0FE492068884204D12068006867
:100E900000F0080003E02068006800F0040060B380
:100EA00094F85C0000F01F0110208840B0602068BA
:100EB000006800F4802080B12068006800F4002001
:100EC00028B9206CC8B12046216C884715E0A06C79
:100ED00098B12046A16C88470FE02068006800F4B4
:100EE000807028B92068006820F008002168086038
:100EF000206C10B12046216C884794F85C0000F00B
:100F00001F0120208840384000287DD0DD4920681E
:100F1000884249D0DB4918312068884244D0D949F9
:100F20003031206888423FD0D64948312068884215
:100F30003AD0D44960312068884235D0D1497831DF
:100F40002068884230D0CF499031206888422BD029
:100F5000CC49A8312068884226D0C949A8392068E0
:100F6000884221D0C6499039206888421CD0C449A3
:100F700078392068884217D0C14960392068884292
:100F800012D0BF494839206888420DD0BC49303959
:100F90002068884208D0BA4918392068884203D0AE
:100FA000B7492068884204D12068006800F010002A
:100FB00003E02068006800F0020028B394F85C00A9
:100FC00000F01F0120208840B06094F8350004280C
:100FD0002DD12068006820F0160021680860206884
:100FE000406920F0800021684861206C08B9A06C3D
:100FF00028B12068006820F008002168086094F893
:101000005C0000F01F0100E03FE03F208840B0603E
:10101000012084F8350000BF002084F8340000BFB0
:10102000206D10B12046216D8847BDE8F88F2068FB
:10103000006800F4802080B12068006800F400207F
:1010400028B9606C08B32046616C88471DE0E06BEE
:10105000D8B12046E16B884717E02068006800F4AB
:10106000807068B92068006820F01000216808606E
:10107000012084F8350000BF002084F8340000BF50
:10108000E06B10B12046E16B8847606D00287AD094
:10109000606D00F00100E8B3042084F83500794960
:1010A000206888424BD0774918312068884246D062
:1010B000744930312068884241D0724948312068F3
:1010C00088423CD06F4960312068884237D06D49F2
:1010D00078312068884232D06A499031206888424D
:1010E0002DD06849A8312068884228D06449A839A1
:1010F0002068884223D062499039206888421ED0F7
:101100005F4978392068884219D05D496039206884
:10111000884200E040E012D05949483920688842AE
:101120000DD0574930392068884208D054491839C1
:101130002068884203D052492068884206D120683E
:10114000006820F001002168086005E02068006860
:1011500020F001002168086000BF0098401C00904A
:10116000504500D905E02068006800F00100002823
:10117000F3D100BF2068006800F0010020B1032017
:1011800084F8350003E00DE0012084F8350000BF4D
:10119000002084F8340000BFE06C002802D0204614
:1011A000E16C8847D9E138492068884222D0364925
:1011B0001431206888421DD0334928312068884284
:1011C00018D031493C312068884213D02E49503123
:1011D000206888420ED02C4964312068884209D0AA
:1011E000294978312068884204D027498C31206809
:1011F000884201D1012000E000200028D2D02068E0
:10120000056894F85C0000F01F010420884000EAA3
:101210000900D8B305F00400C0B394F85C0000F0F6
:101220001F0104208840C8F8040005F4004080B184
:1012300005F4803030B9A06C0028B3D02046A16CF2
:1012400088478AE1206C0028ACD02046216C884772
:1012500083E105F02000E8BB0A492068884253D0AA
:1012600008491831206888424ED00649303120683C
:10127000884249D0034948312068884244D006E07A
:10128000B804024010000240085402584FE0B4492C
:1012900060312068884237D0B1497831206888426F
:1012A00032D0AF499031206888422DD0AC49A83166
:1012B0002068884228D0AB492068884224D0A949B8
:1012C0001831206888421FD0A649303120688842F2
:1012D0001AD000E025E0A34948312068884213D0A5
:1012E000A0496031206888420ED09E49783120683C
:1012F000884209D09B4990312068884204D099499E
:10130000A8312068884206D12068006820F00800D3
:101310002168086005E02068006820F0040021686A
:101320000860206C10B32046216C884715E194F8C2
:101330005C0000F01F010220884000EA0900E8B3C9
:1013400005F00200D0B394F85C0000F01F01022009
:101350008840C8F8040005F4004070B105F48030FE
:1013600028B9606C10B12046616C8847F5E0E06BED
:10137000F0B32046E16B8847EFE005F02000C0BBEA
:101380007749206888424ED07549183120688842D4
:1013900049D0734930312068884244D0704948317F
:1013A000206888423FD06E496031206888423AD038
:1013B0006B4978312068884235D000E04EE06849BA
:1013C0009031206888422ED06549A8312068884233
:1013D00029D064492068884225D0624918312068A4
:1013E000884220D05F493031206888421BD001E01C
:1013F0006EE02DE05B4948312068884213D059499E
:101400006031206888420ED0564978312068884281
:1014100009D0544990312068884204D05149A831FC
:101420002068884206D12068006820F014002168F6
:10143000086005E02068006820F00A002168086064
:10144000012084F8350000BF002084F8340000BF7C
:10145000E06BE8B32046E16B88477EE094F85C00DF
:1014600000F01F010820884000EA090080B305F061
:10147000080068B33A49206888424BD0384918318F
:101480002068884246D0364930312068884241D0B1
:1014900033494831206888423CD031496031206866
:1014A000884237D02E4978312068884232D02C4982
:1014B0009031206888422DD02949A831206888427F
:1014C00028D028492068884224D02649183100E0D5
:1014D00043E0206888421DD022493031206888428C
:1014E00018D0204948312068884213D01D49603106
:1014F000206888420ED01B4978312068884209D084
:10150000184990312068884204D01649A8312068D3
:10151000884206D12068006820F01C00216808601D
:1015200005E02068006820F00E002168086094F84B
:101530005C0000F01F0101208840C8F80400012071
:10154000606584F8350000BF002084F8340000BFD7
:10155000E06C10B12046E16C884700BF65E50000F3
:10156000100002401004024070B5044600F03AF941
:1015700006462546681C10B104480078054400BFA3
:1015800000F030F9801BA842FAD370BD7C00002027
:1015900010B50446102C01D107F0C0FA10BD0000B0
:1015A00010B5044604480068204020B10248046099
:1015B0002046FFF7EDFF10BD88000058F8B5024641
:1015C0000B4600216F4DD7E001278F401E6806EAC9
:1015D0000704002C72D01E7906F00306012E04D0F9
:1015E0001E7906F00306022E13D190684F000326E1
:1015F000BE40B0434F00DE68BE403043906050684C
:1016000001268E40B0431E79C6F300168E4030434B
:1016100050601E7906F00306032E09D0D0684F00F3
:101620000326BE40B0434F009E68BE403043D060AA
:101630001E7906F00306022E13D1CF0802F1200610
:1016400056F827004E07F70E0F26BE40B0434F074F
:10165000FF0E1E69BE403043CF0802F1200646F857
:10166000270010684F000326BE40B0431E7906F0E5
:1016700003064F00BE40304310605E6806F44036FB
:10168000002E78D000BF404E366846F002063E4F2E
:101690003E603E46366806F00206009600BF00BF78
:1016A0003A4E8F0856F827008E07370F0F26BE4098
:1016B000B043374EB24202D100262EE05BE0354EF9
:1016C000B24201D1012628E0334EB24201D10226B6
:1016D00023E0324EB24201D103261EE0304EB24228
:1016E00001D1042619E02F4EB24201D1052614E0A3
:1016F0002D4EB24201D106260FE02C4EB24201D14E
:1017000007260AE02A4EB24201D1082605E0294EFA
:10171000B24201D1092600E00A268F073F0FBE40E2
:1017200030431A4E8F0846F827004FF0B046306815
:10173000A0435E6806F4801606B120434FF0B04621
:1017400030607068A0435E6806F4001606B120435E
:101750004FF0B04670606868A0435E6806F40036DB
:1017600006B1204368602868A0435E6806F48036AE
:1017700006B120432860491C1E68CE40002E7FF42D
:1017800023AFF8BD80000058F44402580804005804
:10179000000002580004025800080258000C0258C9
:1017A000001002580014025800180258001C025879
:1017B000002002580024025810B5426921EA0203B1
:1017C00002EA010443EA0443836110BD0AB1816166
:1017D00001E00B048361704701480068000C70470A
:1017E0000010005C01480068704700007400002091
:1017F00003480068034909780844014908607047B4
:10180000740000207C00002010B5032000F0DEF8FA
:1018100002F0ACF810490968C1F303210F4A515C8A
:1018200001F01F0120FA01F40B48006800F00F00DE
:101830001146085C00F01F0024FA00F00849086017
:1018400008480460002000F00FF808B1012010BD26
:1018500000F036F80020FAE7184402585C8C0008C3
:10186000840000208000002070B5044611480078F4
:1018700008B9012070BD0F4800784FF47A71B1FBB0
:10188000F0F00D490968B1FBF0F5284603F0EAF8DD
:1018900008B10120EEE7102C07D200222146501E8D
:1018A00000F056F80548046001E00120E2E700205E
:1018B000E0E700007C00002080000020780000208D
:1018C00008B500BF0648006840F0020004490860FF
:1018D0000846006800F00200009000BF00BF08BD8D
:1018E000F444025810B501460846002817DB00F002
:1018F0001F0301229A400B4B440943F8242000BFE8
:1019000000BF00BFBFF34F8F00BF00BF00BF00BFCD
:1019100000BF00BFBFF36F8F00BF00BF00BF00BF9D
:1019200010BD000080E100E00146084600280DDB04
:1019300000BF00BF00F01F0301229A4043099B0033
:1019400003F1E023C3F8002100BF00BF00BF7047D0
:101950002DE9F05F80460D46164606F033FB07463C
:1019600039462A46334601F00700C0F1070ABAF1AA
:10197000040F02D94FF0040A01E0C0F1070AD14672
:1019800000F1040ABAF1070F02D24FF0000A01E099
:10199000A0F1030AD4464FF0010A0AFA09FAAAF1A3
:1019A000010A0AEA020A0AFA0CFA4FF0010B0BFAD2
:1019B0000CFBABF1010B0BEA030B4AEA0B042146CB
:1019C000404606F007FBBDE8F09F000000BF00F0B6
:1019D0000702064B19684FF6FF031940044B0B43EF
:1019E00043EA0221014B196000BF70470CED00E093
:1019F0000000FA0501460A680120C1F80005002030
:101A000081F8F404906940F000609061506D024BE1
:101A100018435065002070470300001070470246CD
:101A20001068416200207047F0B5034615461868FB
:101A3000446A21B944EA05401E68B06219E018689A
:101A4000806A04EB1044002208E0186800F58270F8
:101A500050F8220004EB1044501CC2B2481E9042C1
:101A6000F3D844EA0547186800F582704E1E40F826
:101A700026700020F0BD10B50446D4F8080504F027
:101A800004FE10BD70B504460D4605EBC50304F118
:101A90003C0101EB8301CA682946D4F8080504F02B
:101AA000EFFC70BD70B504460D4605EBC50304F5AB
:101AB0001F7101EB8301CA682946D4F8080504F0B8
:101AC00063FD70BD10B50446D4F8080504F0E0FDD0
:101AD00010BD2DE9F04104460D4605F08000802838
:101AE00008D105F00F0000EBC00104F13C0000EB51
:101AF000810607E005F00F0000EBC00104F51F7040
:101B000000EB81063146206806F008F807463846A3
:101B1000BDE8F08170B504460E4606F080008028CE
:101B20000AD106F00F0000EBC00104F13C0000EB0D
:101B300081050120687009E006F00F0000EBC0018C
:101B400004F51F7000EB81050020687006F00F009F
:101B5000287000BF94F8BC04012801D1022070BD98
:101B6000012084F8BC0400BF2946206805F072FB00
:101B700000BF002084F8BC0400BF00BFEFE770B5D1
:101B800004460E4606F00F006168884201D9012024
:101B900070BD06F0800080280AD106F00F0000EB2F
:101BA000C00104F13C0000EB81050120687009E0F0
:101BB00006F00F0000EBC00104F51F7000EB81057B
:101BC000002068700020A87006F00F00287000BF89
:101BD00094F8BC04012801D10220D9E7012084F83F
:101BE000BC0400BF2946206805F02AFD00BF002084
:101BF00084F8BC0400BF00BFCAE7024601F00F0032
:101C000000EBC00302F51F7000EB830040697047D2
:101C10002DE9F04705460E4690461F464FF0000955
:101C200006F0800080280AD106F00F0000EBC0010A
:101C300005F13C0000EB81040120607009E006F032
:101C40000F0000EBC00105F51F7000EB81040020C0
:101C5000607006F00F002070C4F80880277160786B
:101C600008B120786083022F01D10020607100BF8D
:101C700095F8BC04012802D10220BDE8F0870120BC
:101C800085F8BC0400BF2146286805F0EFF900BFC5
:101C9000002085F8BC0400BF4846EEE72DE9F0417E
:101CA00005460E461746984606F00F0000EBC001A9
:101CB00005F51F7000EB8104E760C4F81080002078
:101CC0006061607006F00F002070E868012800D1A4
:101CD000E7612A7B2146286805F046FD0020BDE823
:101CE000F08170B504460D4605F00F00616888422A
:101CF00001D9012070BD05F0800080280AD105F0CF
:101D00000F0000EBC00104F13C0000EB8106012054
:101D1000707007E005EBC50104F51F7000EB81064C
:101D2000002070700120B07005F00F00307000BF0F
:101D300094F8BC04012801D10220DBE7012084F8DB
:101D4000BC0400BF3146206805F0C1FC05F00F005F
:101D500028B9217B04F2C442206805F039FC00BF99
:101D6000002084F8BC0400BF00BFC3E72DE9F041A8
:101D700005460E461746984606F00F0000EBC001D8
:101D800005F13C0000EB8104E760C4F810800020FE
:101D900060610120607006F00F002070E868012883
:101DA00000D1E7612A7B2146286805F0DDFC002090
:101DB000BDE8F0812DE9FE4F0446D4F800B05E4640
:101DC000206805F092FF002874D1206805F0CCFF50
:101DD00008B9BDE8FE8F40F608008059C0F30D2019
:101DE000C4F8FC04206805F0BFFF00F002000228E0
:101DF00005D12068406900F0020021684861206830
:101E000005F0B2FF00F01000102845D1206880696D
:101E100020F0100021688861DBF8209009F00F00A5
:101E200000EBC00104F51F7000EB810AC9F34340C9
:101E300002281AD147F6F07009EA000030B3C9F35E
:101E40000A125846DAF80C1005F093FFC9F30A118C
:101E5000DAF80C000844CAF80C00C9F30A11DAF8E1
:101E600014000844CAF8140010E0C9F343400628DF
:101E70000CD1082204F2C441584605F07AFFC9F398
:101E80000A11DAF814000844CAF8140020688069BE
:101E900040F0100021688861206805F065FF00F4BB
:101EA0000020B0F5002F7BD10025206805F02CFF25
:101EB000029072E003E3029800F00100002868D06D
:101EC000E9B2206805F043FF804608F0010048B100
:101ED000012106F5306000EB45108160294620465F
:101EE00002F07AFF08F00800082809D1082106F559
:101EF000306000EB451081602946204602F03AFF31
:101F000008F01000102805D1102106F5306000EB14
:101F10004510816008F00200022824D1DBF814008B
:101F200000F08000802807D140F60400805940F47A
:101F3000806140F60400815105EBC50104F51F7076
:101F400000EB810A9AF80300012806D100208AF8E4
:101F50000300E9B2204600F0BDFA022106F5306028
:101F600000EB4510816008F02000202805D12021D9
:101F700006F5306000EB4510816008F40050B0F5C4
:101F8000005F06D14FF4005106F5306000EB4510BC
:101F900081606D1C029840080290029800288AD146
:101FA000206805F0E1FE00F48020B0F5802F7DD19F
:101FB000206805F09FFE029000259AE0029800F04C
:101FC0000100002873D0E9B2206805F0A7FE804622
:101FD00008F00100F0B305F00F01012088400190E6
:101FE00040F634008159019821EA000040F634019E
:101FF0008851012106F5106000EB45108160E06812
:10200000012824D105EBC50104F13C0000EB81005F
:1020100005EBC502C16804F13C0000EB820080685A
:10202000014405EBC50204F13C0000EB8200C160F5
:102030006DB905EBC50104F13C0000EB81000069BE
:1020400028B904F2C4420121206805F0C1FAE9B2BE
:10205000204600E001E0FFF715FD08F00800082821
:1020600005D1082106F5106000EB4510816008F0ED
:102070001000102805D1102106F5106000EB451066
:10208000816008F04000402805D1402106F510602D
:1020900000EB4510816008F0020002281DD129469E
:1020A000584605F0E3FD05EBC50101E025E01CE025
:1020B00004F13C0000EB810A9AF80300012806D1E4
:1020C00000208AF80300E9B2204600F0FAF9022164
:1020D00006F5106000EB4510816008F08000802854
:1020E00003D12946204602F019FF6D1C02984008D2
:1020F0000290029800287FF461AF206805F034FE5A
:1021000000F00040B0F1004F1CD140F604008059AF
:1021100020F0010140F60400815194F8F4040128F4
:1021200007D1002084F8F40400212046FFF776FC54
:1021300002E0204600F004FB2068406900F0004007
:1021400021684861206805F00FFE00F40060B0F5DA
:10215000006F0ED140F60800805900F0010010B168
:10216000204600F045FB2068406900F400602168CB
:102170004861206805F0F8FD00F00060B0F1006FE4
:1021800019D12068406900F000602168486194F826
:10219000F40468B9012084F8F4042068406DC0F3A9
:1021A0008300C4F8F80401212046FFF737FC02E061
:1021B000204600F01DFB206805F0D6FD00F480509D
:1021C000B0F5805F7ED140F60400805920F0010117
:1021D00040F6040081511021206805F047FD0027DA
:1021E00032E04FF67F3106F5106000EB471081605A
:1021F00006F5106000EB4710006820F4001106F5AA
:10220000106000EB471001604FF67F3106F530603B
:1022100000EB4710816006F5306000EB4710006866
:1022200020F4001106F5306000EB4710016006F560
:10223000306000EB4710006840F0006106F5306048
:1022400000EB471001607F1C6068B842C9D840F6B7
:102250001C00805940F0011140F61C008151206B98
:1022600070B1D6F8840840F00B01C6F8841840F627
:102270004400805940F00B0140F6440081510FE0CA
:1022800040F61400805942F22B01084340F6140135
:102290008851081F805940F00B014FF401608151B3
:1022A000D6F8000820F4FE60C6F80008217B04F28E
:1022B000C442206805F08CF92068406900F4805021
:1022C000216800E000E04861206805F04DFD00F461
:1022D0000050B0F5005F17D1206804F02FFF206890
:1022E00005F0F0FC206101F01BFB0090227C2068CF
:1022F000009905F0C1FD204600F00AFA2068406907
:1023000000F4005021684861206805F02DFD00F0C0
:102310000800082808D1204600F019FA2068406912
:1023200000F0080021684861206805F01DFD00F0FC
:102330008000802818D1DBF8180020F08000CBF84E
:10234000180001250DE005EBC50104F51F7000EB39
:102350008100C078012803D1E9B22046FFF7B9FB1C
:102360006D1C6068A842EED8206805F0FDFC00F402
:102370008010B0F5801F2DD1012522E006F51060F8
:1023800000EB4510D0F8009005EBC50104F13C00CE
:1023900000EB81000079012812D109F00040B0F172
:1023A000004F0DD1012105EBC50204F13C0000EB0B
:1023B0008200C170E8B240F080012046FFF789FB3F
:1023C0006D1C6068A842D9D82068406900F480106C
:1023D00021684861206805F0C7FC00F40010B0F5E2
:1023E000001F44D1012538E006F5306000EB4510B0
:1023F000D0F8009005EBC50104F51F7000EB8100DB
:102400000079012828D109F00040B0F1004F23D114
:1024100009F4803094F8FC1401F0010188421BD1CA
:10242000012105EBC50204F51F7000EB8200C170AD
:10243000DBF8180040F08000CBF81800DBF814003F
:1024400000F0800040B940F60400805940F400716B
:1024500040F60400815103E06D1C6068A842C3D8B7
:1024600000BF2068406900F40010216848612068BE
:1024700005F07AFC00F08040B0F1804F08D1204692
:10248000FFF7F9FA2068406900F080402168486150
:10249000206805F069FC00F0040004280FD12068D2
:1024A000D0F8049009F00400042802D12046FFF778
:1024B00009FB2068406840EA09002168486000BFC5
:1024C00087E470B504460D462946D4F8080504F0A3
:1024D0004DF970BD70B504460D462946D4F808057F
:1024E00004F068F970BD70B58AB0044614B90120D3
:1024F0000AB070BD266894F8BD0428B9002084F89D
:10250000BC04204600F0A8F8032084F8BD04F06B5A
:1025100000F4807008B90021E160206805F050F8EF
:10252000282204F110016846FDF7D4FE94E80F005C
:1025300004F018FE20B1022084F8BD040120D7E782
:102540000021206805F045FC002531E0012105EB64
:10255000C50204F13C0000EB8200417005EBC501AF
:1025600004F13C0000F8215005EBC50100EB8100AF
:102570004583002105EBC50204F13C0000EB82001D
:10258000017105EBC50204F13C0000EB82008160A3
:1025900005EBC50204F13C0000EB8200C16005EBD5
:1025A000C50204F13C0000EB82000161681CC5B269
:1025B0006068A842CAD800252AE0002105EBC502C0
:1025C00004F51F7000EB8200417005EBC50104F5B6
:1025D0001F7000F82150002105EBC50200EB8200BE
:1025E000017105EBC50204F51F7000EB82008160EC
:1025F00005EBC50204F51F7000EB8200C16005EB1E
:10260000C50204F51F7000EB82000161681CC5B2B1
:102610006068A842D1D8282204F110016846FDF76D
:1026200059FE94E80F0004F0DFFE20B1022084F888
:10263000BD0401205CE7002084F83800012084F804
:10264000BD04606A012802D12046FFF7D3F9206853
:1026500004F0B8FE00204BE710B5B8B004461421D2
:1026600032A8FDF750FEC02102A8FDF74CFE254917
:102670002068884243D14FF480210020CDE9021028
:102680004FF44010249002A800F006F908B1FEF7BC
:10269000C9F900F0F7F800BF1B48006840F00100DE
:1026A000194908600846006800F00100019000BF69
:1026B00000BF4FF4C050329002203390002034907D
:1026C00035900A20369032A91048FEF777FF00BFF8
:1026D0000D480838006840F000600B490839086070
:1026E0000846006800F00060019000BF00BF0022B3
:1026F00004216520FFF72CF96520FFF715F938B0A4
:1027000010BD000000000840E044025800000258DC
:1027100070B504460125206908B9002506E0206946
:10272000022801D1012501E0FEF77CF92946D4F801
:10273000080504F0E8F8D4F8080504F08FF870BD37
:1027400010B50446D4F8080504F0BEF810BD10B565
:102750000446D4F8080504F0C2F810BD70B504466C
:102760000D4600BF94F8BC04012801D1022070BDC1
:10277000012084F8BC0400BF84F838502946206842
:1027800005F05BFB00BF002084F8BC0400BF00BF65
:10279000EDE710B5044604F2C441D4F8080504F08E
:1027A000C9F810BD70B50446256800BF94F8BC0494
:1027B000012801D1022070BD012084F8BC0400BFB3
:1027C000E86B00F4807030B9A06A012803D1A86BCF
:1027D00040F48030A863206805F016FA206804F001
:1027E000DFFD00BF002084F8BC0400BF00BFE2E7AB
:1027F00010B50446D4F8080504F0F9F82068D0F8BC
:10280000000E40F001002168C1F8000E206A28B1D6
:102810000348006840F006000149086010BD000050
:1028200010ED00E070B5044615480068C0F3800064
:1028300048B91348006800F00700A04201D0012009
:1028400070BD0020FCE70E48006820F00700204320
:102850000B490860FEF7C6FF054607E0FEF7C2FF1A
:10286000401BB0F57A7F01D90120E9E70448083818
:102870000068C0F340300028F0D00020E0E70000FE
:102880000C4802580348006840F080700149086015
:10289000704700000C4802582DE9F041044600251D
:1028A000A8464FF00062D4E9001011400020134602
:1028B00059404040014331D1A06E48B1B0F5801F6E
:1028C0000DD0B0F5001F11D0B0F5401F16D114E0A7
:1028D000F948006840F40030F749086010E0022130
:1028E00004F1080002F076FB054609E0022104F13C
:1028F000280002F021FC054602E001E0012500BFAE
:1029000000BF55B9EC482430006820F44010A16E97
:102910000843E9492431086000E0A8464FF4807379
:10292000D4E90010194000205940404001432ED105
:10293000A06D05281BD2DFE800F0030A111819006A
:10294000DD48006840F40030DB49086011E00021F8
:1029500004F1080002F03EFB05460AE0002104F104
:10296000280002F0E9FB054603E002E001E0012552
:1029700000BF00BF55B9D0482430006820F00700E0
:10298000A16D0843CC492431086000E0A8464FF40B
:102990000073D4E900101940002059404040014321
:1029A00034D1E06D802818D003DC40B140281DD11F
:1029B0000CE0C02818D0B0F5807F17D115E0BE48D4
:1029C000006840F40030BC49086011E0002104F1C7
:1029D000080002F0FFFA05460AE0002104F1280091
:1029E00002F0AAFB054603E002E001E0012500BF7A
:1029F00000BF55B9B0482430006820F4E070E16DA4
:102A00000843AD492431086000E0A8464FF48063D4
:102A1000D4E900101940002059404040014339D109
:102A2000D4F8A800B0F5800F1AD004DC50B1B0F58E
:102A3000001F1ED10DE0B0F5C00F18D0B0F5000F8B
:102A400017D115E09C48006840F400309A490860AE
:102A500011E0002104F1080002F0BCFA05460AE08A
:102A6000002104F1280002F067FB054603E002E0C4
:102A700001E0012500BF00BF5DB98F482C30006820
:102A800020F46000D4F8A81008438B492C3108606A
:102A900000E0A8464FF40062D4E900101140002085
:102AA000134659404040014339D1D4F8AC00B0F14D
:102AB000007F1AD004DC50B1B0F1807F1ED10DE050
:102AC000B0F1407F18D0B0F1806F17D115E07A488F
:102AD000006840F400307849086011E0002104F1FA
:102AE000080002F077FA05460AE0002104F1280008
:102AF00002F022FB054603E002E001E0012500BFF1
:102B000000BF5DB96C482C30006820F0E060D4F85C
:102B1000AC10084368492C31086000E0A8464FF02B
:102B20000073D4E90001184000215840494008438F
:102B300028D1E06CA8B1102804D0202809D0302872
:102B400010D10DE05C48006840F400305A4908603C
:102B50000AE0022104F1080002F03CFA054603E015
:102B600002E001E0012500BF00BF55B95248203006
:102B7000006820F03000E16C08434F4920310860C4
:102B800000E0A8464FF48053D4E90010194000201B
:102B900059404040014337D1206EB0F5005F1AD054
:102BA00004DC50B1B0F5805F1ED10DE0B0F5405FA0
:102BB00018D0B0F5804F17D115E03F48006840F4B9
:102BC00000303D49086011E0002104F1080002F0E6
:102BD00001FA05460AE0002104F1280002F0ACFAEF
:102BE000054603E002E001E0012500BF00BF55B942
:102BF00031482430006820F4E040216E08432E491B
:102C00002431086000E0A8464FF40053D4E90010D6
:102C10001940002059404040014335D1606EB0F565
:102C2000403F1ED007DC68B1B0F5803F0BD0B0F557
:102C3000003F19D10EE0B0F5802F13D0B0F5A02FD2
:102C400012D110E012E0012104F1080002F0C2F9F3
:102C500005460BE0012104F1280002F06DFA05465B
:102C600004E003E002E001E0012500BF00BF55B928
:102C700011482430006820F4E020616E08430E49BA
:102C80002431086000E0A8464FF48043D4E90001F5
:102C90001840002158404940084337D1D4F8B000CB
:102CA000B0F1405F20D009DC78B1B0F1805F0DD089
:102CB000B0F1005F1BD110E02C440258B0F1804FFE
:102CC00013D0B0F1A04F12D110E012E0012104F1B5
:102CD000080002F07FF905460BE0012104F128000D
:102CE00002F02AFA054604E003E002E001E00125D3
:102CF00000BF00BF4DB9FE48006820F0E040D4F8A6
:102D0000B0100843FA49086000E0A8464FF40042BA
:102D1000D4E90010114000201346594040400143BF
:102D200029D1206FB0B1B0F1805F03D0B0F1005F66
:102D300011D108E0EE482C38006840F40030EC492E
:102D40002C39086009E0012104F1080002F042F981
:102D5000054602E001E0012500BF00BF55B9E44887
:102D60000838006820F04050216F0843E0490839D6
:102D7000086000E0A8464FF08072D4E900101140CE
:102D8000002013465940404001432AD1A06CB8B1FD
:102D9000012804D002280BD0032812D10FE0D44818
:102DA0002C38006840F40030D1492C3908600AE022
:102DB000022104F1080002F00DF9054603E002E0EB
:102DC00001E0012500BF00BF55B9C9480C380068B3
:102DD00020F00300A16C0843C5490C39086000E0ED
:102DE000A8464FF48002D4E90001104000211346A8
:102DF0005840494008437DD1BE48006840F4807087
:102E0000BC490860FEF7EEFC064606E0FEF7EAFC69
:102E1000801B642801D9032505E0B648006800F44A
:102E200080700028F2D000BF85BBB1481830006820
:102E300000F44070B4F8B41001F44071884213D02B
:102E4000AB481830006820F44077A9481830006873
:102E500040F48030A649183108600846006820F424
:102E60008030086008460760D4F8B400B0F5807F71
:102E700015D1FEF7B7FC064609E0FEF7B3FC801B50
:102E800041F28831884202D9032507E038E09848AA
:102E900018300068C0F340000028EED000BF55BBDA
:102EA00000BFB4F8B40000F44070B0F5407F0ED11C
:102EB0008F484838006820F47C518F4AD4F8B40019
:102EC000104041EA10108A494839086007E08848F4
:102ED0004838006820F47C508549483908608448A7
:102EE00018300068B4F8B410C1F30B0108438049EE
:102EF000183101E005E001E0086002E0A84600E0CA
:102F0000A8460122D4E90001104000211346584090
:102F10004940084330D1E06F18281AD005DC48B189
:102F2000082808D0102817D10CE0202812D0282813
:102F300012D110E012E0012104F1080002F04AF879
:102F400005460BE0012104F1280002F0F5F80546E2
:102F500004E003E002E001E0012500BF00BF55B935
:102F60006348001F006820F03800E16F08436049A3
:102F7000091F086000E0A8460222D4E900011040C1
:102F80000021134658404940084329D1A06F062824
:102F900016D2DFE800F003040B12131412E0012133
:102FA00004F1080002F016F805460BE0012104F1D7
:102FB000280002F0C1F8054604E003E002E001E069
:102FC000012500BF00BF55B94948001F006820F027
:102FD0000700A16F08434649091F086000E0A846A2
:102FE0000423D4E900101940002059404040014317
:102FF00029D1D4F89400062816D2DFE800F00304A3
:103000000B12131412E0012104F1080001F0E2FF99
:1030100005460BE0012104F1280002F08DF8054679
:1030200004E003E002E001E0012500BF00BF4DB96C
:103030002F48006820F00700D4F8941008432C496A
:10304000086000E0A8462023D4E9000118400021D0
:1030500058404940084337D1D4F89000B0F1405F60
:103060001ED007DC68B1B0F1805F0BD0B0F1005F1B
:1030700019D10EE0B0F1804F13D0B0F1A04F12D1B2
:1030800010E012E0002104F1080001F0A3FF054662
:103090000BE0022104F1280002F04EF8054604E09E
:1030A00003E002E001E0012500BF00BF5DB9104868
:1030B000001F006820F0E040D4F8901008430C494D
:1030C000091F086000E0A8464023D4E90010194019
:1030D00000205940404001433CD1D4F89C00B0F559
:1030E000406F25D00EDCA0B1B0F5806F12D005E0A6
:1030F0005844025800480258FFFCFF0FB0F5006F1B
:1031000019D10EE0B0F5805F13D0B0F5A05F12D1F9
:1031100010E012E0002104F1080001F05BFF054619
:103120000BE0022104F1280002F006F8054604E055
:1031300003E002E001E0012500BF00BF4DB9FE48F9
:10314000006820F4E050D4F89C100843FA49086065
:1031500000E0A8468023D4E900101940002059401F
:103160004040014335D1D4F8A000B0F5C04F1ED087
:1031700007DC68B1B0F5005F0BD0B0F5804F19D116
:103180000EE0B0F5004F13D0B0F5204F12D110E093
:1031900012E0002104F1080001F01CFF05460BE0DD
:1031A000022104F1280001F0C7FF054604E003E016
:1031B00002E001E0012500BF00BF4DB9DE48006814
:1031C00020F46040D4F8A0100843DB49086000E018
:1031D000A8460823D4E90010194000205940404077
:1031E000014317D1D4F88400B0F5805F07D10221E4
:1031F00004F1280001F0A0FF08B14FF00108CE480B
:10320000001F006820F44050D4F884100843CA49D5
:10321000091F08601023D4E900101940002059400C
:103220004040014315D1D4F89800B0F5807F07D114
:10323000022104F1280001F07FFF08B14FF00108DE
:10324000BD48006820F44070D4F898100843BA498B
:1032500008604FF40022D4E9000110400021134619
:1032600058404940084327D1D4F8A40030B1B0F504
:10327000803F0AD0B0F5003F0FD10DE0002104F1EE
:10328000080001F0A7FE054609E0022104F128002C
:1032900001F052FF054602E001E0012500BF00BF3A
:1032A0004DB9A548006820F44030D4F8A410084374
:1032B000A149086000E0A8464FF48023D4E900014A
:1032C000184000215840494008432DD1D4F88800C7
:1032D000B0F5801F06D0B0F5001F0CD0B0F5401F30
:1032E00011D10FE094482C38006840F40030924926
:1032F0002C39086009E0012104F1280001F01CFFCD
:10330000054602E001E0012500BF00BF5DB98A4823
:10331000001F006820F44010D4F888100843864944
:10332000091F086000E0A8464FF48032D4E900018C
:1033300010400021134658404940084325D1206DD4
:1033400018B1B0F5803F10D108E07B482C380068F8
:1033500040F4003078492C39086008E0022104F17B
:10336000080001F037FE054601E0012500BF00BF5F
:1033700055B971480C38006820F48030216D08433D
:103380006D490C39086000E0A8464FF00052D4E9BE
:10339000001011400020134659404040014307D11E
:1033A000022104F1280001F0C7FE08B14FF0010826
:1033B0004FF40033D4E9000118400021584049403F
:1033C000084329D1D4F88000A0B1B0F5807F06D0A1
:1033D000B0F5007F0CD0B0F5407F0CD109E0564825
:1033E0002C38006840F4003053492C39086004E060
:1033F00003E002E001E0012500BF00BF5DB94E48D7
:10340000001F006820F44070D4F8801008434A4937
:10341000091F086000E0A8464FF48012D4E90010AC
:1034200011400020134659404040014309D1424811
:103430000838006820F00040616F08433E490839B1
:1034400008604FF08052D4E900101140002013466C
:103450005940404001430AD137484838006820F4B9
:103460008040D4F8B81008433349483908604FF415
:103470000012D4E90010114000201346594040408A
:10348000014309D12C480838006820F08070E16EB3
:1034900008432949083908604FF08042D4E90010F8
:1034A00011400020134659404040014311D100BF54
:1034B00021484838006820F400401F494839086016
:1034C00008460068D4F8BC1008431B494839086016
:1034D00000BF4FF00042D4E9001011400020134615
:1034E00059404040014309D113480C38006820F08E
:1034F0004050616D084310490C3908604FF40002D8
:10350000D4E90010114000201346594040400143C7
:103510000AD10948001F006820F44000D4F88C103C
:1035200008430549091F086001230021606818400D
:1035300001224940504001E058440258014306D15D
:1035400004F1080001F046FD054605B1A846022237
:1035500000216068104049405040014307D10121DB
:1035600004F1080001F036FD054605B1A846042324
:10357000002061681940042240405140084307D1AF
:10358000022104F1080001F025FD054605B1A84619
:103590000823002160681840082249405040014338
:1035A00006D104F1280001F0C7FD054605B1A84683
:1035B000102200216068104049405040014307D16B
:1035C000012104F1280001F0B7FD054605B1A84628
:1035D000202200206168114040405140084307D13B
:1035E000022104F1280001F0A7FD054605B1A84617
:1035F000B8F1000F02D10020BDE8F0810120FBE707
:103600002DE9F04104460D4614B90120BDE8F081D2
:10361000BD48006800F00F00A8420ED2BA4800680A
:1036200020F00F002843B84908600846006800F001
:103630000F00A84201D00120E8E7207800F0040044
:1036400004280ED1B1492069096801F0700188424F
:1036500007D9AE48006820F0700021690843AB49E3
:103660000860207800F00800082811D1A749091D3A
:103670006069096801F07001884209D9A348001DFA
:10368000006820F0700061690843A049091D0860C6
:10369000207800F01000102811D19C49091DA06964
:1036A000096801F4E061884209D99848001D006862
:1036B00020F4E060A16908439449091D086020785E
:1036C00000F02000202811D190490831E0690968F4
:1036D00001F07001884209D98C480830006820F058
:1036E0007000E1690843894908310860207800F0DA
:1036F000020002280ED18549E068096801F00F0137
:10370000884207D98148006820F00F00E16808432B
:103710007E490860207800F00100002850D07B48E6
:10372000006820F47060A168084378490860606808
:10373000022807D1754818380068C0F34040F8B92E
:10374000012063E76068032807D1704818380068D3
:10375000C0F34060A0B9012058E76068012807D194
:103760006A4818380068C0F3002048B901204DE7C6
:10377000664818380068C0F3800008B9012045E7A2
:1037800062480838006820F00700616808435F4914
:1037900008390860FEF726F8064608E0FEF722F82A
:1037A000801B41F28831884201D903202EE7574817
:1037B0000838006800F038006168B0EBC10FEDD147
:1037C000207800F0020002280ED15049E068096814
:1037D00001F00F01884207D24C48006820F00F002A
:1037E000E1680843494908604748006800F00F0055
:1037F000A8420ED94448006820F00F0028434249EF
:1038000008600846006800F00F00A84201D00120BF
:10381000FCE6207800F0040004280ED13B49206922
:10382000096801F07001884207D23848006820F02A
:1038300070002169084335490860207800F00800CD
:10384000082811D13149091D6069096801F070012A
:10385000884209D22D48001D006820F0700061697F
:1038600008432A49091D0860207800F0100010283C
:1038700011D12649091DA069096801F4E061884257
:1038800009D22248001D006820F4E060A1690843C5
:103890001E49091D0860207800F02000202811D161
:1038A0001A490831E069096801F07001884209D2BB
:1038B00016480830006820F07000E1690843134999
:1038C0000831086000F052F810490968C1F303217B
:1038D0000F4A515C01F01F0120FA01F70B48006804
:1038E00000F00F001146085C00F01F0027FA00F0FE
:1038F000084908600848076008480068FDF7B4FFF9
:103900008046404682E600000020005218440258DB
:103910005C8C0008840000208000002078000020DB
:1039200010B500F023F80D490968C1F303210C4AD2
:10393000515C01F01F0120FA01F40848006800F012
:103940000F001146085C00F01F0024FA00F0054942
:103950000860054804600846006810BD1844025815
:103960005C8C00088400002080000020F0B5824EAE
:10397000366806F0380636B1082E15D0102E15D050
:10398000182E7DD114E07C4E103E3668C6F34016EA
:1039900046B1794E103E3668C6F3C107774E26FA17
:1039A00007F000E07548E5E07548E3E07548E1E0C0
:1039B000714E1836366806F003046F4E18363668B6
:1039C000C6F305116C4E1C36366806F001056A4ECA
:1039D00024363668C6F3CC0616FB05F601EE106AEF
:1039E000B8EE410A002971D024B1012C50D0022C2C
:1039F0006DD16DE0604E103E3668C6F340163EB3A2
:103A00005D4E103E3668C6F3C1075C4E26FA07F3DA
:103A100001EE103AF8EE411A01EE101AB8EE411A12
:103A200081EE812A9FED581AC0EE011A524E2036BF
:103A30003668C6F3080601EE106AB8EE411A31EE98
:103A4000811AF7EE001A31EE211A62EE010A1EE029
:103A500001EE101AB8EE411ADFED4C1A81EE812A00
:103A60009FED491AC0EE011A434E20363668C6F360
:103A7000080601EE106AB8EE411A31EE811A00E034
:103A800076E0F7EE001A31EE211A62EE010A5BE0F1
:103A900001EE101AB8EE411A9FED3D2AC2EE011A4E
:103AA0009FED391A80EE012A334E20363668C6F370
:103AB000080601EE106AB8EE411A32EE011AB7EEAE
:103AC000002A31EE021A61EE810A3DE04EE01DE06F
:103AD00001EE101AB8EE411ADFED2E1A81EE812A9E
:103AE0009FED291AC0EE011A234E20363668C6F320
:103AF000080601EE106AB8EE411A31EE811AF7EEAF
:103B0000001A31EE211A62EE010A1DE001EE101AD0
:103B1000B8EE411A9FED1E2AC2EE011A9FED1A1A45
:103B200080EE012A144E20363668C6F3080601EEF0
:103B3000106AB8EE411A32EE011AB7EE002A31EEE1
:103B4000021A61EE810A00BF00BF0B4E20363668B4
:103B5000C6F34626721C01EE102AB8EE411AC0EEDA
:103B6000811ABCEEE11A11EE100A00E0002001E01B
:103B7000034800BF00BFF0BD104402580090D003BE
:103B800000093D0000127A00000000460024744C39
:103B90000024744A0024F44A2DE9F047044614B97D
:103BA0000120BDE8F087207800F00100002870D0E7
:103BB000FA48006800F03808F8481830D0F800904B
:103BC000B8F1100F06D0B8F1180F0FD109F00300AB
:103BD00002280BD1F14810380068C0F3404000289B
:103BE0006AD06068002867D10120DAE700BF60680A
:103BF000B0F5803F08D1E9481038006840F48030C3
:103C0000E649103908602EE0606868B9E34810386A
:103C1000006820F48030E1491039086008460068E7
:103C200020F4802008601EE06068B0F5A02F0DD160
:103C3000DA481038006840F48020D849103908600C
:103C40000846006840F4803008600CE0D348103823
:103C5000006820F48030D1491039086008460068B7
:103C600020F48020086000BF606898B1FDF7BAFDBD
:103C7000054606E0FDF7B6FD401B642801D9032088
:103C80008FE7C64810380068C0F340400028F1D0E4
:103C900012E012E0FDF7A6FD054606E0FDF7A2FDE5
:103CA000401B642801D903207BE7BC48103800681A
:103CB000C0F340400028F1D100BF207800F002009E
:103CC000022874D1B548006800F03808B3481830AD
:103CD000D0F80090B8F1000F05D0B8F1180F56D108
:103CE00009F00300D0BBAD4810380068C0F3800075
:103CF00018B1E06808B9012053E7A84810380068F7
:103D000020F01900E1680843A44910390860FDF764
:103D100069FD054606E0FDF765FD401B022801D957
:103D200003203EE79D4810380068C0F3800000285B
:103D3000F1D000BFFDF750FD41F2030188421AD8CF
:103D4000206940280BD195480C38006820F47C305D
:103D500040F4003091490C39086017E017E08F48B3
:103D60000C38006820F47C30216940EA01308B492E
:103D70000C3908600AE089480C38006820F0FE40E1
:103D8000217C40EA016085490C39086066E0E06802
:103D900088B382481038006820F01900E1680843B1
:103DA0007E4910390860FDF71DFD054607E056E025
:103DB000FDF718FD401B022801D90320F1E67748E2
:103DC00010380068C0F380000028F1D000BFFDF774
:103DD00003FD41F2030188421AD8206940280BD123
:103DE0006E480C38006820F47C3040F400306B4999
:103DF0000C39086017E017E068480C38006820F4B8
:103E00007C30216940EA013064490C3908600AE0DD
:103E100062480C38006820F0FE40217C40EA0160D6
:103E20005E490C39086019E05C481038006820F0E1
:103E300001005A4910390860FDF7D4FC054606E038
:103E4000FDF7D0FC401B022801D90320A9E6534806
:103E500010380068C0F380000028F1D100BF20783E
:103E600000F0100010287CD14C48006800F03808A1
:103E70004A481830D0F80090B8F1080F06D0B8F1D1
:103E8000180F3DD109F00300012839D143481038FB
:103E90000068C0F3002020B1E069802801D0012033
:103EA0007FE600BFFDF798FC41F2030188421AD873
:103EB000206A20280AD139480C38006820F0F840E0
:103EC00040F0804035490C39086018E033480C3820
:103ED000006820F0F84094F8201040EA81602F49F3
:103EE0000C3908600BE02D48001F006820F07C5062
:103EF00094F8201040EA01602849091F086066E034
:103F0000E06978B325481038006840F08000234904
:103F100010390860FDF766FC054606E0FDF762FC17
:103F2000401B022801D903203BE61C4810380068DA
:103F3000C0F300200028F1D000BFFDF74DFC41F296
:103F4000030188421CD8206A20280CD113480C3861
:103F5000006820F0F84040F0804010490C390860BB
:103F60001AE035E01CE00D480C38006820F0F840FD
:103F700094F8201040EA816008490C3908600BE091
:103F80000648001F006820F07C5094F8201040EA9A
:103F900001600249091F086019E00000104402583E
:103FA000FA48006820F08000F8490860FDF71AFC24
:103FB000054606E0FDF716FC401B022801D9032048
:103FC000EFE5F2480068C0F300200028F2D100BFFE
:103FD000207800F00800082836D16069D0B1EB489D
:103FE0007430006840F00100E84974310860FDF762
:103FF000F9FB054606E0FDF7F5FB401B022801D959
:104000000320CEE5E14874300068C0F3400000288A
:10401000F1D019E0DD487430006820F00100DB4980
:1040200074310860FDF7DEFB054606E0FDF7DAFBBC
:10403000401B022801D90320B3E5D448743000683E
:10404000C0F340000028F1D1207800F020002028A3
:1040500030D1A069B8B1CD48006840F48050CB4958
:104060000860FDF7BFFB054606E0FDF7BBFB401B04
:10407000022801D9032094E5C4480068C0F3403009
:104080000028F2D016E0C148006820F48050BF49F3
:104090000860FDF7A7FB054606E0FDF7A3FB401B04
:1040A000022801D903207CE5B8480068C0F34030FD
:1040B0000028F2D1207800F0040004287DD1B44813
:1040C000006840F48070B2490860FDF78BFB05463C
:1040D00006E0FDF787FB401B642801D9032060E55B
:1040E000AB48006800F480700028F2D000BFA068E0
:1040F000012808D1A5487030006840F00100A349AC
:10410000703108602DE0A06868B9A0487030006880
:1041100020F001009D49703108600846006820F0D9
:10412000040008601DE0A06805280DD19748703094
:10413000006840F004009549703108600846006846
:1041400040F0010008600CE090487030006820F0FA
:1041500001008E49703108600846006820F00400B4
:10416000086000BFA068A0B1FDF73CFB054608E071
:10417000FDF738FB401B41F28831884201D903200A
:104180000FE5824870300068C0F340000028EFD08F
:1041900013E0FDF727FB054608E0FDF723FB401B76
:1041A00041F28831884201D90320FAE4774870301F
:1041B0000068C0F340000028EFD1606A00287DD07D
:1041C00072481030006800F03800182877D0606A14
:1041D000022875D16D48006820F080706B49086036
:1041E000FDF700FB054606E0FDF7FCFA401B022840
:1041F00001D90320D5E465480068C0F34060002879
:10420000F2D100BFD4E90A1041EA00105F49283119
:10421000096840F2F332914308435C492831086051
:10422000208E401EC0F30800616B491E4FF47E4291
:1042300002EA41210843218F491ED20102EA0141CD
:1042400008433C21095D491E120202EA016108434C
:104250004E493031086000BF081F006820F001009F
:10426000091F08604948343000684FF6F8718843E8
:10427000A16C40EAC10045493431086043482C3004
:10428000006820F00C00216C084340492C31086084
:104290000846006820F00200616C08433B492C315D
:1042A00008600846006840F48030086008460068EE
:1042B00040F4003008600846006802E093E038E00F
:1042C0001FE040F4802008600846006840F00100CC
:1042D00008602E48006840F080702C490860FDF7A7
:1042E00081FA054606E0FDF77DFA401B022801D958
:1042F000032056E425480068C0F340600028F2D04F
:1043000071E02248006820F0807020490860FDF7C5
:1043100069FA054606E0FDF765FA401B022801D957
:1043200003203EE419480068C0F340600028F2D141
:1043300059E0164828300768144830300668606A2B
:10434000012821D007F00301A06A81421CD1C7F3E4
:104350000511E06A884217D1C6F30801206B401EA0
:10436000814211D1606B401EC6F3462188420BD1B9
:10437000A06B401EC6F30641884205D1E06B401E8B
:10438000C6F30661884205D001200AE400440258C1
:104390000048025815480068C0F3CC07A06CB8422A
:1043A00021D012480838006820F001000F49083970
:1043B0000860FDF717FA054600BFFDF713FA401B2A
:1043C000FBD00A4800684FF6F8718843A16C40EAB8
:1043D000C1000649086005480838006840F001003F
:1043E00002490839086000204AE4000034440258B9
:1043F00070B504460CB9012070BD606A00B900BFF9
:104400000021A1626349206888420CD0624920687B
:10441000884208D061492068884204D0E0680F28AB
:1044200001D90120E8E7204600F0A3FF05465949DD
:104430002068884209D058492068884205D05749E9
:104440002068884201D0082D0DD852492068884242
:1044500007D051492068884203D0504920688842DB
:1044600003D1102D01D90120C6E794F8810028B9A5
:10447000002084F88000204600F092F8022084F8A2
:1044800081002068006820F0010021680860206831
:10449000806800F4F816A069B0F1806F11D16068EF
:1044A000B0F5800F01D1A06B28B1606848B9A06B4E
:1044B000B0F1805F05D12068006840F48050216829
:1044C0000860606800F48000B0F5800F0BD1E068F0
:1044D000072808D32068006820F48070216D084305
:1044E0002168086005E02068006820F48070216879
:1044F0000860A16AE06908433043E16B0843E16862
:10450000084321688860616A606B0843A16B0843B7
:10451000A16908432169084361690843216A084386
:1045200061680843E16C0843A1680843A16C084333
:10453000A16D08432168C860606878B92068806808
:1045400020F4C05040F400602168886020688068D2
:1045500020F4C06040F48060216888602068006DAD
:1045600020F0010021680865606800F48000B0F563
:10457000800F07D12068C06820F00040616D0843BB
:104580002168C8600020C4F88400012084F88100FC
:10459000002031E70030014000380040003C00407E
:1045A00010B5B8B00446142132A8FBF7ACFEC02108
:1045B00002A8FBF7A8FE64492068884236D181141E
:1045C0000020CDE902101A9002A8FEF765F908B1A3
:1045D000FCF728FA00BF5D48006840F480505B4952
:1045E00008600846006800F48050019000BF00BFDA
:1045F00000BF56481038006840F001005349103998
:1046000008600846006800F00100019000BF00BF8C
:10461000E020329002203390002034903590052025
:10462000369032A94A48FCF7C9FF8AE04949206818
:1046300088423AD180140021CDE9020100201A906D
:1046400002A8FEF729F908B1FCF7ECF900BF3F48D2
:104650000838006840F480403C4908390860084642
:10466000006800F48040019000BF00BF00BF3748E1
:104670001038006840F002003449103908600846DC
:10468000006800F00200019000BF00BF4FF46040DE
:1046900032900220339000203490359005203690DF
:1046A00032A92D48FCF78AFF4BE02C49206888424C
:1046B00047D180140021CDE9020100201A9002A800
:1046C000FEF7EAF808B1FCF7ADF900BF1F4808385B
:1046D000006840F400401D49083908600846006839
:1046E00000F40040019000BF00BF00BF1748103821
:1046F000006840F00200154910390860084600685B
:1047000000F00200019000BF00BF1820329002208C
:10471000339000203490022035900620369032A944
:104720000D48FCF74BFF20203290022033900020F0
:104730003490022035900720369032A90648FCF7C5
:104740003DFF38B010BD000000300140F044025879
:10475000000002580038004000040258003C0040AD
:104760002DE9FF5F04468A4693461E460E9D0020B3
:10477000039020682030029020683030019000BF04
:1047800094F88000012803D1022004B0BDE8F09F16
:10479000012084F8800000BFFDF724F881463746E9
:1047A000B04694F88100012808D00220039000BF91
:1047B000002084F8800000BF0398E6E7BAF1000FFC
:1047C00003D0BBF1000F00D046B90120039000BF19
:1047D000002084F8800000BF0398D6E7052084F805
:1047E00081000020C4F88400C4F864B0A4F86A60B2
:1047F000A4F86860C4F85CA0A4F86260A4F86060E3
:10480000206760672068C06820F4C0202168C86005
:10481000206840686FF30F003043216848602068CB
:10482000006840F00100216808606068B0F5800F02
:1048300005D12068006840F4007021680860E068D5
:104840000F284ED947E02068406900F00200022896
:104850000ED16FB1E06D006821680862E06D001D47
:10486000E065B4F86200401EA4F86200B4F862701B
:104870002068406948F20801084080B1B8F1000F93
:104880000DD02068006B616E0860606E001D606670
:10489000B4F86A00401EA4F86A00B4F86A80FCF715
:1048A000A1FFA0EB0900A84201D3681C00B995B98B
:1048B000204600F0F3FC00BF002084F8800000BF19
:1048C000D4F8840040F48070C4F88400012084F897
:1048D0008100032059E7002FB5D1B8F1000FB2D104
:1048E0009EE0E06807284CD945E02068406900F068
:1048F000020002280DD167B154F85C0F01880298BC
:1049000001802068801C2060E088401EE080E788ED
:104910005C3C2068406900F0010080B1B8F1000FF4
:104920000DD00198008854F8641F08802068801C0E
:104930002060E088401EE080B4F80680643CFCF70C
:1049400051FFA0EB0900A84201D3681C00B995B93A
:10495000204600F0A3FC00BF002084F8800000BFC8
:10496000D4F8840040F48070C4F88400012084F8F6
:104970008100032009E7002FB7D1B8F1000FB4D1AF
:104980004EE048E02068406900F0020002280FD1A4
:1049900077B1E06D0078216881F82000E06D401C5F
:1049A000E065B4F86200401EA4F86200B4F86270DA
:1049B0002068406900F0010088B1B8F1000F0ED006
:1049C000206890F83000616E0870606E401C606670
:1049D000B4F86A00401EA4F86A00B4F86A80FCF7D4
:1049E00001FFA0EB0900A84201D3681C00B995B9EA
:1049F000204600F053FC00BF002084F8800000BF78
:104A0000D4F8840040F48070C4F88400012084F855
:104A100081000320B9E6002FB4D1B8F1000FB1D165
:104A20002B46002208212046CDF8009000F0AEFC75
:104A300028B1D4F8840040F02000C4F88400204657
:104A400000F02CFC00BF002084F8800000BF012093
:104A500084F88100D4F8840008B1012095E6039819
:104A600093E6704770B504462546681EB0F1807F16
:104A700001D301200FE0681E4FF0E02148610F21B3
:104A80004FF0FF3003F0A6FA00204FF0E0218861DC
:104A900007200861002070BD10B5FFF7E2FF10BDD0
:104AA00000BFFEE730B50B46002100BF16E00A2428
:104AB000B4EB107F05D9302404EB107403F81140D7
:104AC00005E0412404EB10740A3C03F81140000196
:104AD00000254C00641C1D554C1CE1B29142E6DBE4
:104AE00030BD000000B587B0142102A8FBF70BFC15
:104AF00000BF6A48006840F0040068490860084642
:104B0000006800F00400019000BF00BF00BF08462D
:104B1000006840F0800008600846006800F08000EF
:104B2000019000BF00BF00BF0846006840F00100D0
:104B300008600846006800F00100019000BF00BF57
:104B400000BF0846006840F00200086008460068A0
:104B500000F00200019000BF00BF01225103504845
:104B6000FCF734FE0022A8214D48FCF72FFE01225D
:104B700048F21E014B48FCF729FE00224FF48851F1
:104B80004948FCF723FE012240214748FCF71EFE5E
:104B900042F2A800029001200390002004900590AA
:104BA00002A93F48FCF70AFD06200290002003906E
:104BB000049002A93A48FCF701FD012002904FF44D
:104BC000881003900220049002A93648FCF7F6FCF6
:104BD0001E2002900120039000200490059002A95D
:104BE0003048FCF7EBFC102002904FF404100390C7
:104BF0000020049002A92A48FCF7E0FC0220029061
:104C00004FF4881003900220049002A92648FCF774
:104C1000D5FC4FF48A5002900120039000200490AC
:104C2000059002A92048FCF7C9FC402002904FF4EF
:104C3000041003900120049002A91948FCF7BEFC5F
:104C40004FF40040029001200390002004900220C5
:104C5000059002A91348FCF7B1FC802002904FF4A4
:104C6000881003900020049002A90F48FCF7A6FCCE
:104C7000002203210620FCF76BFE002206210720FC
:104C8000FCF766FE002204210A20FCF761FE0022E8
:104C900005211720FCF75CFE07B000BDE044025878
:104CA00000080258000002580004025810B51548C8
:104CB000154908604FF48000486000211248816067
:104CC0000721C160002101614FF0807141618900BD
:104CD00081614FF04051C1610021016241628162F6
:104CE000C16241638163C163016441648164C164E1
:104CF000016541658165FFF77BFB08B1FBF792FE1B
:104D000010BD0000003001403007002010B5002227
:104D10000E490F4801F071FB08B1FBF783FE0D4906
:104D20000B4801F0A5FE08B1FBF77CFE0A490848D4
:104D300000F076FF08B1FBF775FE054801F09AFF19
:104D400008B1FBF76FFEFDF79DFD10BD3C01002093
:104D5000000C0020B40100209001002000BFFEE7FD
:104D600000BFFEE710B50248FDF724F810BD0000B3
:104D7000F02000202DE9F04704460D46266837460E
:104D8000D6F8408007F5306000EB4510D0F8089069
:104D9000104880450BD909F40040B0F5004F06D10A
:104DA0004FF4004107F5306000EB4510816020466C
:104DB000FDF7EFFC0748804508D9E068012805D1D8
:104DC00004F2C4420121206802F002FC0020BDE888
:104DD000F08700000A30544F2DE9F04705460C4695
:104DE000D5F800904E46D9F840A006F5306000EBAB
:104DF0004410D0F80880E868012855D108F0080070
:104E000008280FD1434882450BD908F40040B0F57B
:104E1000004F7BD14FF4004106F5306000EB4410A9
:104E2000816073E008F02000202806D1202106F5DB
:104E3000306000EB4410816068E008F02800002832
:104E400064D1344882450CD908F40040B0F5004FD5
:104E500007D14FF4004106F5306000EB441081604B
:104E600054E004EBC40105F51F7000EB810706F563
:104E7000306000EB4410396A0069C0F31200081A70
:104E8000786164B9386930B905F2C44201212868F3
:104E900002F09EFB03E07969F8680844F860E1B22B
:104EA0002846FCF7FFFD31E01B4882451BD108F482
:104EB0000040B0F5004F07D14FF4004106F53060D7
:104EC00000EB4410816021E008F02000202805D18B
:104ED000202106F5306000EB44108160E1B22846E5
:104EE000FCF7E0FD12E06CB904EBC40105F51F709E
:104EF00000EB8100006928B905F2C442002128684E
:104F000002F066FBE1B22846FCF7CCFD0020BDE8CC
:104F1000F08700000A30544F0A31544F2DE9F84F02
:104F200007460E46D7F80090C84606EBC60107F1C3
:104F30003C0000EB8104D4E90410884202D901202E
:104F4000BDE8F88FD4E90401451AA068A84200D250
:104F5000A568E81C4FEA900A17E0D4E90401451A55
:104F6000A068A84200D2A568E81C4FEA900A387BE6
:104F7000ABB2F2B200904846E16802F0F1FFE0689F
:104F80002844E06060692844606108F5106000EB27
:104F90004610806980B2504506D3D4E90410884297
:104FA00002D220690028D8D1D4E9040188420ED861
:104FB00006F00F01012000FA01FB40F6340050F822
:104FC000080020EA0B0040F6340141F808000020F8
:104FD000B6E770472DE9F04104460E4600275548D4
:104FE000006800F00300032802D10120BDE8F08131
:104FF00050482838006820F080604E492839086001
:10500000FCF7F0FB054606E0FCF7ECFB401B022832
:1050100001D90320EAE7474828380068C0F3C06098
:105020000028F1D100BF4348006820F47C3021689B
:1050300040EA01303F490860A088401EC0F30800E4
:10504000A168491E4FF47E4202EA41210843A1892A
:10505000491ED20102EA01410843217C491E120285
:1050600002EA0161084333491031086000BF31484A
:10507000001D006820F0C000616908432D49091D2A
:1050800008600846006820F02000A169084329490B
:10509000091D08600846006820F0100008602548D7
:1050A000143000684FF6F8718843E16940EAC100A6
:1050B0002049143108601F48001D006840F01000AE
:1050C0001C49091D08602EB90846006840F40020FC
:1050D000086012E0012E08D11648001D006840F457
:1050E00080101449091D086007E01248001D00687F
:1050F00040F400100F49091D08600E482838006868
:1051000040F080600B4928390860FCF76BFB0546CE
:1051100006E0FCF767FB401B022801D9032065E786
:10512000044828380068C0F3C0600028F1D0384631
:105130005CE70000284402582DE9F04104460E4681
:1051400000275548006800F00300032802D1012021
:10515000BDE8F08150482838006820F080504E4962
:1051600028390860FCF73EFB054606E0FCF73AFBF1
:10517000401B022801D90320EAE747482838006885
:10518000C0F340700028F1D100BF4348006820F010
:105190007C70218840EA01503F490860A088401E89
:1051A000C0F30800A168491E4FF47E4202EA412183
:1051B0000843A189491ED20102EA01410843217C2A
:1051C000491E120202EA016108433349183108609E
:1051D00000BF3148001D006820F440606169084349
:1051E0002D49091D08600846006820F40070A16977
:1051F00008432949091D08600846006820F48070AA
:10520000086025481C3000684FF6F8718843E16952
:1052100040EAC10020491C3108601F48001D006899
:1052200040F480701C49091D08602EB908460068CA
:1052300040F48000086012E0012E08D11648001DDD
:10524000006840F400001449091D086007E0124896
:10525000001D006840F080700F49091D08600E486D
:105260002838006840F080500B4928390860FCF766
:10527000B9FA054606E0FCF7B5FA401B022801D949
:10528000032065E7044828380068C0F34070002810
:10529000F1D038465CE700002844025802685169A2
:1052A0000268926942F0080203689A610268926992
:1052B00042F0100203689A610268126822F001024B
:1052C00003681A600268126940F26F339A430368F8
:1052D0001A610268926822F4404203689A6090F86A
:1052E0008120042A0ED001F020025AB1D0F8842087
:1052F00042F08002C0F884200268926942F02002E5
:1053000003689A6190F88120032A0ED001F04002D0
:105310005AB1D0F8842042F00402C0F88420026818
:10532000926942F0400203689A6101F400725AB136
:10533000D0F8842042F00102C0F88420026892690B
:1053400042F4007203689A6101F480725AB1D0F895
:10535000842042F00802C0F884200268926942F476
:10536000807203689A610022A0F86220A0F86A2087
:10537000704710B501460124C86B04EB5013C86890
:10538000421CD01DC20802FB03F010BD2DE9F04104
:1053900006460D4617461C46DDF818800BE0FCF764
:1053A00021FAA0EB0800A04201D3601C00B914B997
:1053B0000320BDE8F081306840692840A84201D14F
:1053C000012000E00020B842E9D00020F1E770475A
:1053D00030B501460A461378521C147843EA04207B
:1053E00030BD10B5FCF704FAFFF756FB10BD000006
:1053F00000B59DB04C210AA8FAF785FF202102A82C
:10540000FAF781FF0220FDF70DFA00BF002001909E
:105410002F48006820F001002D4908600846006808
:1054200000F0010001902B48006840F440402949F9
:1054300008600846006800F44040019000BF00BFCB
:1054400000BF2448006800F40050B0F5005FF8D1B8
:105450002148006820F00300801C1F4908602120BB
:105460000A904FF480300B9001201090022013908E
:1054700002211491012115916421169102211791A5
:1054800004211891022119910C211A9100211B91DC
:105490001C910AA8FEF780FB08B1FBF7C3FA3F2076
:1054A00002900320039000200490082005904020E3
:1054B000069007900001089040200990022102A860
:1054C000FEF79EF808B1FBF7ADFA1DB000BD000075
:1054D0002C040058184802582844025834480068E0
:1054E00040F47000324908603248006800F00F0054
:1054F000072806D22F48006820F00F00C01D2D4954
:1055000008602D48006840F001002B490860002029
:105510002949103108602848006828490840264970
:1055200008602448006800F00F00072806D92148C9
:10553000006820F00F00C01D1E49086000201E49B1
:1055400018310860091D0860091D08601C481A49C7
:10555000283108601B48091D08601B48091D0860A8
:105560000020091D08601848091D08600020091D59
:1055700008601548091D08600020091D08600E48D4
:10558000006820F480200C49086000200A4960313E
:1055900008600E4800686FF30F00B0F1005F02D2A0
:1055A00001200B49086043F2D2000A4908607047A5
:1055B00088ED00E000200052004402587FEDF6EA3A
:1055C000000202020000FF01800201010010005CE5
:1055D000088100510040005200B52DED028B87B0CC
:1055E0009FED4A0A8DED060A9FED480A8DED050AEA
:1055F00006AA3221464802F087FE05AA3221444815
:1056000002F0C6FE002012E0414901EB800191ED5D
:10561000000ADDED060A30EE600ADDED050A80EED7
:10562000201A3B4901EB800181ED001A401C322811
:10563000EADB06AA32213648C83002F065FE05AA28
:1056400032213348C83002F0A3FE002014E0304974
:10565000C83101EB800191ED000ADDED060A30EE64
:10566000600ADDED050A80EE201A2949C83101EBF8
:10567000800181ED001A401C3228E8DB04AB3222A5
:105680002349C831224802F025FE03AA32212048CE
:1056900002F066FE02AA32211D48C83002F060FE08
:1056A000012301AA02A903A802F04AFE9DED010A06
:1056B000B5EEC00AF1EE10FA04DBF1EEC00ACDED52
:1056C000000A04E0DFED110ACDED000A00BF9DEDF8
:1056D000040ADDED000A80EE201AB7EEC10AB0EE32
:1056E000408B02F08DFCB7EEC00B0A4880ED000A3B
:1056F00090ED000ADFED080A20EE200A074880ED51
:10570000000A07B0BDEC028B00BD000000000000E5
:10571000E008002034010020E02E6542380100201E
:105720002DE9F04104460D46D4F8C87204F53070F6
:10573000D4F8D41250F8210010B90320BDE8F0814C
:1057400004F53070D4F8D41250F8216005F00F0041
:1057500000EB800104F1140000EB8100406838B3D5
:1057600005F00F0000EB800104F1140000EB810054
:10577000416805F00F0000EBC00207F13C0000EBB0
:1057800082008068B1FBF0F200FB121080B90021AA
:1057900005F00F0000EB800204F1140000EB820022
:1057A000416000231A462946204601F02EF917E0F1
:1057B0000020C6F8140204F53170D4F8D41250F861
:1057C0002100006960B1D6F8080204F53171D4F8FF
:1057D000D42251F822102A460B6906F50471984725
:1057E0000020ABE770B504460E4604F53070D4F8DF
:1057F000D41250F82150D4F8D41250F8210008B92E
:10580000032070BD3146204600F055FFC5F80C025C
:10581000D5F8040204F53171D4F8D43251F82310CC
:10582000CA6805F5037190470020EAE770B50446A1
:105830000D4630480178204600F00FFE00212D482B
:10584000007800F00F0000EB800204F1140000EB80
:105850008200018228480178204600F0FEFD0021E8
:105860002548007800F00F0000EB800204F5AA70D4
:1058700000EB8200018221480178204600F0EDFD16
:1058800000211E48007800F00F0000EB800204F1B8
:10589000140000EB820001821848007800F00F002D
:1058A00000EB800204F1140000EB8200418204F559
:1058B0003070D4F8D41250F82100C8B104F5317119
:1058C000D4F8D42251F822104868804704F530718A
:1058D000D4F8D42251F8220001F0C0FB002104F5D5
:1058E0003070D4F8D42240F822100020C4F8BC0252
:1058F000002070BD2F020020300200203102002065
:1059000070B5044604F53070D4F8D41250F8215024
:105910000DB9032070BD04F53170D4F8D41250F8DD
:10592000210098B195F80002FF280FD095F80122C8
:1059300095F8000204F53171D4F8D46251F82610BC
:105940008B6829469847FF2085F800020020E1E790
:1059500001460A200880014870470000A801002085
:105960002DE9F041044682210D4800F09CFC0546DB
:1059700001210B4800F097FC06468121084800F001
:1059800092FC07460DB11020A8710EB14020B080E6
:105990000FB14020B880432020800148BDE8F0814D
:1059A000EC0100202DE9F041044682210E4800F070
:1059B0007AFC054601210C4800F075FC0646812161
:1059C000094800F070FC07460DB11020A87116B10F
:1059D0004FF40070B08017B14FF40070B8804320CE
:1059E00020800148BDE8F081EC0100202DE9F04164
:1059F000044682210D4800F056FC054601210B4863
:105A000000F051FC06468121084800F04CFC074696
:105A10000DB11020A8710EB14020B0800FB1402010
:105A2000B880432020800148BDE8F081EC010020CF
:105A300070B504460E464FF4077001F011FB0546A1
:105A400045B9002104F53070D4F8D42240F8221072
:105A5000022070BD4FF407712846FAF754FC04F594
:105A60003070D4F8D41240F82150D4F8D41250F841
:105A70002100C4F8BC02207C98BB4FF400730222C2
:105A800050480178204600F0B9FE01214D480078C9
:105A900000F00F0000EB800204F1140000EB820024
:105AA00001824B02022248480178204600F0A6FEFF
:105AB00001214548007800F00F0000EB800204F55A
:105AC000AA7000EB8200018210214048007800F0AB
:105AD0000F0000EB800204F1140000EB8200418211
